:0300000002020CED
:0C020C00787FE4F6D8FD758143020253B0
:1004BF00204A696E53687569002020586944692085
:1004CF002020200030303A303000205061695368CE
:1004DF00756900205069616F58690054756F5368D2
:1004EF0075690078796A0053746174653A20202029
:0804FF00202020202020200015
:10063E00023000000232000002340000013F0F01C0
:0A064E003E00063830303A3030002C
:10060000E4FDFCC3ED9FEC9E5015E4FBFA0BBB0030
:0F061000010ABA04F8BBE2F50DBD00010C80E44D
:01061F0022B8
:0805B4008F80D2927F057E00CA
:1005BC00E4FDFCC3ED9FEC9E5015E4FBFA0BBB0075
:0F05CC00010AEB64784A70F50DBD00010C80E464
:0105DB0022FD
:08067500C2911205B4C29222E9
:08067D00D2911205B4C29222D1
:10039600AE36AF377C007D0A1201C0EF2430F53847
:1003A600AE36AF377C007D0A1201C0ED2430F53938
:1003B600AE2CAF2D7C007D0A1201C0EF2430F53B38
:1003C600AE2CAF2D7C007D0A1201C0ED2430F53C29
:0B03D6007FC71206757B007A007938A3
:1003E1008B098A0A890BAB09AA0AA90B120152606F
:1003F10013050BE50B7002050A14F9120152FF12E5
:05040100067D80E222EF
:1005DC00C2927F381206757F0C1206757F061206C2
:1005EC00757F011206757F801206757BFF7A047980
:0405FC00F60203E11F
:09066C00D288D2A8D28AD2AA22B7
:10065900438901758C3C758AB0D28CE4F529F54142
:03066900F5422235
:0C000E00438910758DFE758B0BD28E227D
:0300030002046E86
:10046E00C0E0C0D075D000C002C003C004C005C03B
:10047E0006C00720B22A7F017E0012060020B2209D
:0D048E00200204D20280192005033004135F
:10049B00B20030000AC2A9C2ABD2A4D2A58004D24A
:0304AB00A9D2AB28
:1004AE00D007D006D005D004D003D002D0D0D0E0F3
:0104BE00320B
:03000B00020406E6
:10040600C0E0C0D0C28C758C3C758AB0D28C0529F0
:10041600E5296414704DF5290542E542700205414F
:10042600B52219E541B52114754100754200C20592
:10043600C204C203D2A4D2A5C2AB8027D2ABE52D9B
:10044600452C7017F52C752D3CE5371537700215C0
:1004560036E53745367004F536F537E52D152D703A
:0804660002152CD0D0D0E032C9
:03001B0002001EC2
:10001E00C0E0C0F0C083C082C0D075D000C000C0A8
:10002E0001C002C003C004C005C006C007758DFE26
:10003E00758B0B2005062003030200FE052FE52F0E
:10004E007002052EC39480E52E943E503C0531E59A
:10005E003170020530AF3F7E009F7480F865309896
:10006E005006C2A4D2A58013D3E5319FEE6480F86A
:10007E00E5306480984004D2A4D2A5E5316464458D
:10008E0030706DF530F5318067C3E52F9420E52E85
:10009E00944E5006D2A4D2A58056AE2EAF2FE4FCBD
:1000AE00FD7BA07A8CF9F8D31201F6403D0535E5BB
:1000BE003570020534AF3F7E00D39F7480F86534EF
:1000CE00985006D2A4C2A58013D3E5359FEE648066
:1000DE00F8E5346480984004D2A4D2A5E535646472
:1000EE004534700CF534F5358006752E00752F00ED
:1000FE003004360533E53370020532D39428E532E9
:10010E00648094805006C2A4D2A58011D3E53394A6
:10011E0028E532648094804004D2A4D2A5E53364ED
:10012E006445327004F532F533D007D006D005D0D1
:10013E0004D003D002D001D000D0D0D082D083D052
:04014E00F0D0E032DB
:05000600C2A2D2A322FA
:05068500D2A2C2A32275
:1002980012000630B6107F861206757BFF7A047945
:1002A800BF1203E180EDD2A27F861206757BFF7A2A
:1002B8000479C81203E1D2A9852521852622AE2515
:1002C800AF267C007D3C12016B8E368F37AE25AF92
:1002D800267C007D3C12016B8C2C8D2DD2053005BF
:1002E8000512039680F8C2A97FC71206757BFF7AAC
:1002F8000479D31203E112068520B6107F8712060F
:0F030800757BFF7A0479D91203E180EDD2A3222D
:1003170012000630B6107F861206757BFF7A0479C5
:10032700BF1203E180EDD2A27F871206757BFF7AA9
:100337000479E21203E1D2A9852721852822AE2775
:10034700AF287C007D3C12016B8E368F37AE27AF0E
:10035700287C007D3C12016B8C2C8D2DD203300341
:100367000512039680F8C2A97FC71206757BFF7A2C
:100377000479D31203E112068520B6107F8712068F
:0F038700757BFF7A0479D91203E180EDD2A322AE
:100507007F871206757BFF7A0479EA1203E1D2A28C
:10051700C2A3D204D2A9852A21852B22AE2AAF2BCA
:100527007C007D3C12016B8E368F37AE2AAF2B7C59
:10053700007D3C12016B8C2C8D2D30040512039627
:0305470080F82217
:10058500E4FFFEC2A0E4FDFC0DBD00010CED6464BA
:100595004C70F5D2A0E4FCFD0DBD00010CED6464CA
:0E05A5004C70F50FBF00010EEF64C84E70D50C
:0105B3002225
:10054A002095197F0A7E001205BC20950F3095FD73
:10055A00053EE53ED394014003E4F53E20961B7F19
:10056A000A7E001205BC2096113096FDB2013001B8
:0B057A0003753F0A200103753F1422A7
:1006200012066C1205DC12065912000ED2AF7F873B
:0E0630001206757BFF7A0479F21203E180F066
:10021800020620E493A3F8E493A34003F68001F2D6
:1002280008DFF48029E493A3F85407240CC8C333E7
:10023800C4540F4420C8834004F456800146F6DFB6
:10024800E4800B010204081020408090063EE47E02
:10025800019360BCA3FF543F30E509541FFEE493AB
:10026800A360010ECF54C025E060A840B8E493A372
:10027800FAE493A3F8E493A3C8C582C8CAC583CA9D
:10028800F0A3C8C582C8CAC583CADFE9DEE780BE55
:0106580000A1
:10015200BB010689828A83E0225002E722BBFE02AB
:09016200E32289828A83E49322DE
:10016B00BC000BBE0029EF8DF084FFADF022E4CC78
:10017B00F875F008EF2FFFEE33FEEC33FCEE9DEC41
:10018B00984005FCEE9DFE0FD5F0E9E4CEFD22ED87
:10019B00F8F5F0EE8420D21CFEADF075F008EF2FD1
:1001AB00FFED33FD4007985006D5F0F222C398FDC2
:0501BB000FD5F0EA225F
:1001C000C2D5EC30E709B2D5E4C39DFDE49CFCEE5A
:1001D00030E715B2D5E4C39FFFE49EFE12016BC366
:1001E000E49DFDE49CFC800312016B30D507C3E461
:0601F0009FFFE49EFE22C9
:1001F600EB9FF5F0EA9E42F0E99D42F0EC6480C880
:0602060064809845F0221F
:00000001FF
